:100000000C9463030C9480030C9480030C94800381
:100010000C9480030C9480030C9480030C94800354
:100020000C9480030C9480030C94F31B0C94351BEC
:100030000C94EA210C9480030C9480030C948003AC
:100040000C9480030C9480030C9480030C94800324
:100050000C9480030C94A9210C9480030C948003CD
:100060000C9480030C9480030C9480030C94800304
:100070000C9480030C9480030C9480030C948003F4
:100080000C9480030C9480030C9480030C948003E4
:100090000C9480030C9480030C9480030C948003D4
:1000A0000C9480030C9480030C9480034D0A520A34
:1000B0005C0A500A550A5A0A580A860B890B8C0B9F
:1000C0008F0B920B950B980B790F790FA80FA80F38
:1000D00012102E10381138113910AD10BE10BE108C
:1000E00048196F191D1B6F191D1BBB19DE191D1B2C
:1000F000D31AE31A00572B000158E100270400002F
:100100003A002F0004001D00E200E3003B0001570D
:1001100005571B00E0004C003C0002570657060044
:1001200050002A003D001300075719004F004900F6
:100130003E00035707000500000020023F0004575F
:10014000000008570000AE004000A9000000AA000F
:1001500000000E57410009000B000E000000460091
:1001600042000A571100100051000F5743000B576F
:1001700008000D0052002C0044000C570C002E000B
:10018000E400280045000D5712002D00E600E700AE
:100190000957A8000158E5001E14000000000000E7
:1001A0000100E100280000000000330036023702A1
:1001B000E2000000000024022F003000E000E10017
:1001C00000001E02260227022302E10000001F0297
:1001D0002F0230023302000000000000230221023F
:1001E00000000000000000000000200200000000ED
:1001F0000000530000000000000000000000220288
:100200002D003600000000000000240021001E0028
:10021000270000000000250022001F003700E50035
:100220000000260023002000E400E5000000550047
:1002300056005700E6000000000054000100E500F1
:100240002800000000000000010000000000000085
:10025000000000000000000000000000000000009E
:10026000000000000000000000000000000000008E
:10027000000000000000000000000000000000007E
:10028000000000000000000000000000000000006E
:100290000000000000000000005C00000000000002
:1002A00000000000145C00000000000000000000DE
:1002B000DF5CAE00AC000000B30000000000A9004D
:1002C000AA00A800B40000000000AD00AB000000D0
:1002D000B20000000000BD00BE00AF5DB100000034
:1002E0000000A600A7000000B900000029002B00B4
:1002F0003900E100E00000001E00140004001D00B1
:10030000E3003C001F001A0016001B00E2003B0047
:1003100020000800070006002C003A00210015000C
:10032000090019002C003D00220017000A000500FA
:1003300000003F004C002F000000350000003E0090
:1003400046003000000034000000440023001C0080
:100350000B00110000004500240018000D001000E3
:100360002C00430025000C000E0036002C0040003D
:10037000260012000F003700E6004100270013009E
:1003800033003800E40042002A0031002800E50074
:1003900010500000000000000000000000000000FD
:1003A000000000000000000000000000000000004D
:1003B000000000000000000000000000000000003D
:1003C000000000000000000000000000000000002D
:1003D000000000000000000000000000000000001D
:1003E000000000000000000000000000000000000D
:1003F00000000000000000000000000000000000FD
:1004000000000000000000000000000000000000EC
:1004100000000000000000000000000000000000DC
:1004200000000000000000000000000000000000CC
:1004300000000000000000001057000029002B0001
:100440000000E1001B0100000000FF00FE00FD00B5
:100450000601E3000000F400F100FB0019014C006C
:100460000000F900FA00F30050002A000000F50037
:10047000F200FC004F004E00000000000000E00011
:1004800000000000000048000000E20000004B00F7
:10049000000000000000E60000004A00000000002C
:1004A0000000E4000000000000000000EF00000079
:1004B00051004D000000ED00EE00000052002C0045
:1004C00000000000F00000001D01280000000000F6
:1004D000000000007E00E700000000000000E500D2
:1004E0001050000005010980A101850319012AB7F8
:1004F00000150126B700950175108100C0050C0993
:1005000001A101850419012AA002150126A0029566
:100510000175108100C005010906A10185060507C6
:1005200019E029E7150025019508750181020507E5
:10053000190029EF1500250195F0750181020508C4
:100540001901290595057501910295017503910120
:10055000C005010902A1010901A10005091901292C
:10056000081500250195087501810205010930096A
:10057000311581257F950275088106093815812579
:100580007F950175088106050C0A38021581257FC3
:10059000950175088106C0C00660FF0961A10109C7
:1005A00062150026FF009520750881020963150079
:1005B00026FF00952075089102C005010906A101DA
:1005C000050719E029E71500250195087501810245
:1005D0009501750881010507190029FF150026FFFF
:1005E000009506750881000508190129059505750E
:1005F000019102950175039101C009027400040183
:1006000000A0FA0904000001030101000921110101
:1006100000012240000705810308000109040100D0
:100620000203000000092111010001222200070538
:1006300083032000010705040320000109040200D0
:1006400001030102000921110100012247000705F1
:1006500082030800010904030001030000000921CE
:1006600011010001226D0007058503200001120120
:1006700000020000000897327449010001020001E5
:1006800016034500720067006F0044006F00780099
:10069000200045005A00000028035A005300410082
:1006A000200054006500630068006E006F006C005D
:1006B0006F006700790020004C0061006200730049
:1006C00000000403090411241FBECFEFDAE0DEBFEF
:1006D000CDBF12E0A0E0B1E0EAEDF3E502C0059085
:1006E0000D92A23EB107D9F724E0A2EEB2E001C01C
:1006F0001D92A034B207E1F70E94531D0C94EB2920
:100700000C9400009C013A9521153F4130F5BC0145
:1007100066277270AC01442754709C012227387000
:1007200094FF0FC090FF02C080E101C080E0672B02
:1007300009F08062452B09F08064232B79F08068F2
:100740000895892F8170672B09F08260452B09F08D
:100750008460232B19F08860089580E00895FC01DF
:100760008081813041F49185911114C09285992343
:1007700089F082E00895823041F48185811107C0BB
:100780008285811106C083E0089586E0089585E0A2
:10079000089584E008958FE39CE90197F1F700C084
:1007A00000001092060308958FE39CE90197F1F78A
:1007B00000C000001092F8020895CF93DF93EC017F
:1007C0000E949325CE01805E9109089710F0209732
:1007D00031F4CE010E9482030E94822505C0CE0121
:1007E0000E9482030E947125DF91CF9108958FE3CB
:1007F0009CE90197F1F700C000008091040382306A
:1008000049F018F4813049F00CC0833031F0853064
:1008100021F007C08DE490E002C08EE490E00E94D9
:10082000DD031092040308958FE39CE90197F1F72B
:1008300000C0000080910203823049F018F481303A
:1008400049F00CC0833031F0853021F007C08AE4D4
:1008500090E002C08BE490E00E94DD03109202035E
:1008600008958FE39CE90197F1F700C000008091A3
:100870000003823049F018F4813049F00CC0833015
:1008800031F0853021F007C084E390E002C08AE1B6
:1008900090E00E94DD031092000308958FE39CE92D
:1008A0000197F1F700C000008091FE02823049F00C
:1008B00018F4813049F00CC0833031F0853021F0DC
:1008C00007C081E390E002C08CE190E00E94DD036C
:1008D0001092FE0208958FE39CE90197F1F700C0A2
:1008E00000008091FC02823049F018F4813049F018
:1008F0000CC0833031F0853021F007C08CE090E0EF
:1009000002C088E190E00E94DD031092FC0208958D
:100910008FE39CE90197F1F700C000008091FA0293
:10092000823049F018F4813049F00CC0833031F046
:10093000853021F007C088E390E002C08FE090E0AE
:100940000E94DD031092FA0208958FE39CE901975B
:10095000F1F700C000008091F602823049F018F4EF
:10096000813049F00CC0833031F0853021F007C070
:100970008EE192E002C088E392E00E94DD031092D3
:10098000F60208958FE39CE90197F1F700C000009B
:100990008091F402823049F018F4813049F00CC0A3
:1009A000833031F0853021F007C085E390E002C04C
:1009B00087E190E00E94DD031092F40208958FE336
:1009C0009CE90197F1F700C000008091F2028230AB
:1009D00049F018F4813049F00CC0833031F0853093
:1009E00021F007C083E392E002C086E190E00E941C
:1009F000DD031092F20208958FE39CE90197F1F76D
:100A000000C000008091F002823049F018F481307B
:100A100049F00CC0833031F0853021F007C084E10B
:100A200090E002C085E190E00E94DD031092F002A8
:100A300008958FE39CE90197F1F700C000008091D1
:100A4000EE02833021F0853011F0813021F489E30A
:100A500090E00E94DD031092EE0208958FE39CE97E
:100A60000197F1F700C000008091EC02823049F05C
:100A700018F4813049F00CC0833031F0853021F01A
:100A800007C080E390E002C08AE090E00E94DD03AE
:100A90001092EC0208958FE39CE90197F1F700C0F2
:100AA00000008091EA02823049F018F4813049F068
:100AB0000CC0833031F0853021F007C084E392E030
:100AC00002C087E390E00E94DD031092EA020895DD
:100AD0008FE39CE90197F1F700C000008091E802E4
:100AE000823049F018F4813049F00CC0833031F085
:100AF000853021F007C084E390E002C086E390E0F7
:100B00000E94DD031092E80208958FE39CE90197AB
:100B1000F1F700C000008091E602833021F08530BB
:100B200011F0813021F489E290E00E94DD031092FF
:100B3000E6020895CF93DF93EC01805E9109089758
:100B400010F0209731F4CE010E9482030E94892583
:100B500005C0CE010E9482030E9478258C2F0E943E
:100B6000C825DF91CF910895CF93DF93EC010E94C8
:100B70009A05C933D10549F42FEF87EE93E0215050
:100B800080409040E1F700C00000CE010E94DD03EC
:100B9000DF91CF910895CF93DF93EC01888183306B
:100BA00061F48EE490E00E94B4058EE490E00E942F
:100BB000B4058EE490E00E94B4058881843020F072
:100BC0008EE490E00E94B405DF91CF910895CF9319
:100BD000DF93EC018881833061F48BE490E00E9424
:100BE000B4058BE490E00E94B4058BE490E00E9491
:100BF000B4058881843020F08BE490E00E94B40535
:100C0000DF91CF910895CF93DF93EC0188818330FA
:100C100061F48AE190E00E94B4058AE190E00E94CC
:100C2000B4058AE190E00E94B4058881843020F008
:100C30008AE190E00E94B405DF91CF910895CF93AF
:100C4000DF93EC018881833061F48CE190E00E94B5
:100C5000B4058CE190E00E94B4058CE190E00E9424
:100C6000B4058881843020F08CE190E00E94B405C6
:100C7000DF91CF910895CF93DF93EC01888183308A
:100C800061F488E190E00E94B40588E190E00E9460
:100C9000B40588E190E00E94B4058881843020F09A
:100CA00088E190E00E94B405DF91CF910895CF9341
:100CB000DF93EC018881833061F48FE090E00E9443
:100CC000B4058FE090E00E94B4058FE090E00E94B0
:100CD000B4058881843020F08FE090E00E94B40554
:100CE000DF91CF910895CF93DF93EC01888183301A
:100CF00061F488E392E00E94B40588E392E00E94E8
:100D0000B40588E392E00E94B4058881843020F025
:100D100088E392E00E94B405DF91CF910895CF93CC
:100D2000DF93EC018881833061F487E190E00E94D9
:100D3000B40587E190E00E94B40587E190E00E944D
:100D4000B4058881843020F087E190E00E94B405EA
:100D5000DF91CF910895CF93DF93EC0188818330A9
:100D600061F486E190E00E94B40586E190E00E9483
:100D7000B40586E190E00E94B4058881843020F0BB
:100D800086E190E00E94B405DF91CF910895CF9362
:100D9000DF93EC018881833061F485E190E00E946B
:100DA000B40585E190E00E94B40585E190E00E94E1
:100DB000B4058881843020F085E190E00E94B4057C
:100DC000DF91CF910895CF93DF93EC018881833039
:100DD00061F489E390E00E94B40589E390E00E9409
:100DE000B40589E390E00E94B4058881843020F046
:100DF00089E390E00E94B405DF91CF910895CF93ED
:100E0000DF93EC018881833061F48AE090E00E94F6
:100E1000B4058AE090E00E94B4058AE090E00E9468
:100E2000B4058881843020F08AE090E00E94B40507
:100E3000DF91CF910895CF93DF93EC0188818330C8
:100E400061F487E390E00E94B40587E390E00E949C
:100E5000B40587E390E00E94B4058881843020F0D7
:100E600087E390E00E94B405DF91CF910895CF937E
:100E7000DF93EC018881833061F486E390E00E9487
:100E8000B40586E390E00E94B40586E390E00E94FA
:100E9000B4058881843020F086E390E00E94B40598
:100EA000DF91CF910895CF93DF93EC018881833058
:100EB00061F489E290E00E94B40589E290E00E942A
:100EC000B40589E290E00E94B4058881843020F066
:100ED00089E290E00E94B405DF91CF9108950E94CD
:100EE000AF0380930403823049F018F4813091F00D
:100EF0000895833031F0853049F008958DE490E015
:100F00000BC08EE490E00E949A0504C08EE490E04D
:100F10000E94B4058EE490E00E949A0508950E9414
:100F2000AF0380930203823049F018F4813091F0CE
:100F30000895833031F0853049F008958AE490E0D7
:100F40000BC08BE490E00E949A0504C08BE490E013
:100F50000E94B4058BE490E00E949A0508950E94D7
:100F6000AF0380930003823049F018F4813091F090
:100F70000895833031F0853049F0089584E390E09E
:100F80000BC08AE190E00E949A0504C08AE190E0DB
:100F90000E94B4058AE190E00E949A0508950E949B
:100FA000AF038093FE02823049F018F4813091F053
:100FB0000895833031F0853049F0089581E390E061
:100FC0000BC08CE190E00E949A0504C08CE190E097
:100FD0000E94B4058CE190E00E949A0508950E9459
:100FE000AF038093FC02823049F018F4813091F015
:100FF0000895833031F0853049F008958CE090E019
:101000000BC088E190E00E949A0504C088E190E05E
:101010000E94B40588E190E00E949A0508950E941C
:10102000AF038093FA02823049F018F4813091F0D6
:101030000895833031F0853049F0089588E390E0D9
:101040000BC08FE090E00E949A0504C08FE090E012
:101050000E94B4058FE090E00E949A0508950E94D6
:10106000AF038093F602823049F018F4813091F09A
:101070000895833031F0853049F008958EE192E093
:101080000BC088E392E00E949A0504C088E392E0D6
:101090000E94B40588E392E00E949A0508950E9498
:1010A000AF038093F402823049F018F4813091F05C
:1010B0000895833031F0853049F0089585E390E05C
:1010C0000BC087E190E00E949A0504C087E190E0A0
:1010D0000E94B40587E190E00E949A0508950E945D
:1010E000AF038093F202823049F018F4813091F01E
:1010F0000895833031F0853049F0089583E392E01C
:101100000BC086E190E00E949A0504C086E190E061
:101110000E94B40586E190E00E949A0508950E941D
:10112000AF038093F002823049F018F4813091F0DF
:101130000895833031F0853049F0089584E190E0DE
:101140000BC085E190E00E949A0504C085E190E023
:101150000E94B40585E190E00E949A0508950E94DE
:10116000AF038093EC02823049F018F4813091F0A3
:101170000895833031F0853049F0089580E390E0A0
:101180000BC08AE090E00E949A0504C08AE090E0DB
:101190000E94B4058AE090E00E949A0508950E949A
:1011A000AF038093EA02823049F018F4813091F065
:1011B0000895833031F0853049F0089584E392E05A
:1011C0000BC087E390E00E949A0504C087E390E09B
:1011D0000E94B40587E390E00E949A0508950E945A
:1011E000AF038093E802823049F018F4813091F027
:1011F0000895833031F0853049F0089584E390E01C
:101200000BC086E390E00E949A0504C086E390E05C
:101210000E94B40586E390E00E949A0508950E941A
:10122000AF0380930603843019F481E00E94F32415
:1012300008950E94AF038093F802823049F018F4B9
:10124000813041F00895833029F0853019F00895F8
:1012500080E101C088E00E94F32408950E94AF035A
:101260008093EE02823049F018F4813099F00895AD
:10127000833039F0853051F0089584E00E94F324E2
:10128000089589E390E00E949A0504C089E390E004
:101290000E94B40589E390E00E949A0508950E9497
:1012A000AF038093E602823049F018F4813099F060
:1012B0000895833039F0853051F0089580E20E941E
:1012C000F324089589E290E00E949A0504C089E21F
:1012D00090E00E94B40589E290E00E949A0508958A
:1012E000A7E1B0E0E6E7F9E00C9464274B8B5C8B58
:1012F0006D8B7E8B8F8B61111092090486E09E01AD
:10130000235F3F4FD901E82F1D92EA95E9F795E059
:10131000FE017396D90101900D929A95E1F79C898F
:101320004E895F897B897D879E876F87598B488B24
:10133000F901DE01179601900D928A95E1F7CE0131
:1013400007960E940E1581113EC086E0FE01379679
:10135000DE01119601900D928A95E1F7FF81E885F3
:101360006A857B856115710531F0EF3F31F481E0CD
:10137000FF3F19F403C081E001C080E080FD23C07D
:1013800020912E0330E0C901019687709927409182
:101390005F0350E08417950779F1F983EA837D8331
:1013A0006C8396E0929FD001939FB00D1124A15DB4
:1013B000BC4FFE01319601900D929A95E1F7809312
:1013C0002E030E949B1416E080915F0390912E03E0
:1013D0008917F9F0189FC0011124815D9C4F0E946C
:1013E0000E158823B1F080915F0390E0019687701D
:1013F000992780935F03E8CF0E945B2510922E030C
:1014000010925F03E8E2F3E086E0DF011D928A9527
:10141000E9F76796E3E00C948027982F92959F70E8
:1014200019F0892F24E001C020E0982F9695969519
:1014300011F02E5F892F982F969509F02F5F822F3C
:1014400008950E945B252FEF84E39CE021508040AB
:101450009040E1F700C000009AE088E10FB6F894F0
:10146000A895809360000FBE90936000FFCFCF934C
:10147000C82F0E940D0A56985E9825982D98269898
:101480002E9827982F9890E0FC013197E730F105CE
:10149000A8F4EA5AFF4F0C94B728259A2D9A0EC04B
:1014A000259A2D9A269A2E9A09C0259A2D9A04C01B
:1014B000259A2D9A269A2E9A279A2F9A8C2FCF9179
:1014C000089580E290E09093180180931701809135
:1014D000E40281110EC00E946D2681E08093E40237
:1014E0002FEF83ED90E3215080409040E1F700C062
:1014F000000064E670E080E40E9473269093180177
:1015000080931701892B09F04EC064E670E080E0FB
:101510000E94E8269093180180931701892B09F007
:1015200042C064E670E080E00E94E82690931801D3
:1015300080931701892BB9F564E670E08FE30E9470
:10154000E8269093180180931701892B61F50E947A
:101550003D2764E670E080E40E94732690931801B2
:1015600080931701892BF9F464E670E08CE00E9407
:10157000E8269093180180931701892BA1F464E663
:1015800070E080E00E94E826909318018093170194
:10159000892B49F464E670E08FE30E94E82690937B
:1015A0001801809317010E943D278091170108952B
:1015B000CF93DF9356985E9825982D9826982E986D
:1015C00027982F98C8E8D0E08FEF90E09983888320
:1015D000AAE8B0E011969C938E93ECE8F0E091833A
:1015E0008083259A2D9A2FEF80E792E0215080404A
:1015F0009040E1F700C00000269A2E9A2FEF80E776
:1016000092E0215080409040E1F700C00000279A0E
:101610002F9A2FEF80E792E0215080409040E1F731
:1016200000C0000025982D982FEF80E792E0215010
:1016300080409040E1F700C0000026982E982FEFE0
:1016400080E792E0215080409040E1F700C0000028
:1016500027982F988091BE0387702FEF829FC0013B
:1016600011249595879595958795992799838883D2
:1016700011969C938E939183808356985E982598BB
:101680002D9826982E9827982F98DF91CF9108951E
:10169000CF93E82F873080F5809117019091180142
:1016A000892B09F047C0CE2F64E670E080E40E94E9
:1016B00073269093180180931701892BD1F464E667
:1016C00070E082E10E94E826909318018093170150
:1016D000892B79F481E090E001C0880FCA95EAF780
:1016E00064E670E080950E94E8269093180180934C
:1016F00017010E943D271EC090E0FC013797E7309C
:10170000F105C0F4E35AFF4F0C94B728209A2898AB
:1017100011C0219A29980EC0229A2A980BC0239AA8
:101720002B9808C0529A5A9805C0539A5B9802C0E9
:101730003E9A4698CF910895209828982198299804
:1017400022982A9823982B9852985A9853985B98E5
:101750003E9846980895CF93873040F580911701C1
:1017600090911801892B59F564E670E081E40E949C
:1017700073269093180180931701892B11F0C0E014
:1017800011C084E690E00E94182797FF05C090934F
:10179000180180931701F3CFC82FC095109218013C
:1017A000109217010E943D278C2F0AC09FB18FB164
:1017B000807F869586959370892B809501C080E007
:1017C000CF9108958098889A8198899A84988C9A64
:1017D00085988D9A86988E9A87988F9A0895A5E213
:1017E000B0E0E5EFFBE00C945C27FC018081918187
:1017F00023813481232B31F09F3F31F491E08F3FDF
:1018000019F403C091E001C090E090FD6FC57F0125
:1018100085E0DE01919601900D928A95E1F7D7015E
:1018200012962C9189A19AA1222349F00E944E245C
:10183000182F682F89A19AA10E94BE2403C00E947C
:101840008A24182F69A17AA1812F0E94BF118C01CF
:10185000F7018281811108C09091B903D7011296D6
:101860008C91911142C08EC08091190190911A0102
:10187000019691F34BE1C42E41E0D42EA12CB12C62
:10188000992493948091190190911A018A159B05CE
:101890001CF3F6018681882309F1818592858017E2
:1018A000910739F4809107049091080480179107FB
:1018B000A9F0D6011F969C921F971C961C930E931D
:1018C0001B9751968C91811103C0C6010E9474220E
:1018D000C60106960E94932210920904BFEFAB1A2C
:1018E000BB0AE6E1CE0ED11CCDCF8111F0C4E09150
:1018F0000703E330A0F481E08E0F80930703F0E04C
:10190000EE0FFF1FE151FC4FD7018D919C91918308
:10191000808382E08983CE0101960E94271DBFEF5C
:10192000E3EDF0E3B150E040F040E1F700C000002B
:1019300080910703833009F0CAC410920703E5EFD2
:10194000F3E0AFEEB3E08BEF93E0318111962C9191
:10195000119732132EC030812C9132132AC0329647
:1019600012968E179F0789F784E0898381E0809320
:10197000BA038EEF8A831092B903CE0101960E94BA
:10198000271DA5C49091BA039923C1F0882311F0B3
:1019900086E001C087E08983D7018C918A83119604
:1019A0008C918B838EEF8C83CE0101960E94271D34
:1019B00005C083E089831092BA03DBCFF70122814F
:1019C0000F3AFDE51F07D1F5222309F489C0909154
:1019D000BE0381E0890F8770987F853020F4892BC2
:1019E0008093BE0302C09093BE038091BE038770B4
:1019F000BFEF8B9FC001112495958795959587958D
:101A00009927909389008093880090938B0080930E
:101A10008A0090938D0080938C004091BE0350917A
:101A2000BF036091C0037091C1038FE090E00E94FA
:101A30002E288091D0030E94370A52C0C8019755C2
:101A40008F3F910511F008F04BC040911901509162
:101A50001A014817590724F490931A018093190129
:101A600036E1389F5001399FB00C1124F501E55E35
:101A7000FE4F6F01208BD70112969C91868199238E
:101A800029F1128701878F5F86830E94DE21F6018C
:101A9000968785878091810387839091090480913F
:101AA0000A04892B80870190F081E02DC5018F5DAC
:101AB0009E4F309731F0D60154966D917C91559799
:101AC000099510930804009307040AC0882341F085
:101AD0008189882329F0C5018F5D9E4F0E94932242
:101AE000D70112968C91882309F4B2C10430BDE568
:101AF0001B0758F40B3FECE51E0780F4C801825029
:101B00009C45449708F038C109C00336FDE51F071E
:101B100029F0073A2DE5120709F02EC10E94721331
:101B2000909317048093160401318CE5180709F48B
:101B3000C9C008F043C00930ACE51A0709F49EC0DB
:101B400008F50530ECE51E0709F488C080F4033081
:101B50002CE5120709F47BC008F07DC002309CE53B
:101B6000190709F0F9C0809116048160F3C00730AD
:101B7000ACE51A0709F47AC008F07CC0809116041D
:101B80008061E8C00D30ECE51E0709F489C058F407
:101B90000B302CE5120709F47BC008F07DC0809162
:101BA0001604886071C00F309CE5190709F482C0E3
:101BB00008F084C080911604877FCCC00E3FBCE53E
:101BC0001B0709F473C008F50531FCE51F0709F48C
:101BD00087C068F403318CE5180709F477C008F072
:101BE00097C00E945B25809116048F77B3C00C3F8D
:101BF000ACE51A07B9F108F056C00B3FECE51E073B
:101C000009F0AAC08091170441C00230FDE51F070A
:101C100009F48AC058F401158DE5180709F45BC072
:101C200008F06AC080911704826030C00336ADE5C9
:101C30001A0709F47FC0073ABDE51B0709F484C001
:101C40000330EDE51E0709F087C060E06EC08091AB
:101C5000160482607FC08091160416C0809116041D
:101C6000886078C08091170482604FC0809116040C
:101C7000806270C08091160480646CC00E945B25F5
:101C800080911604806866C0846064C081603DC035
:101C9000809116048E7F5EC0809116048D7F5AC09D
:101CA0008091160416C08091170418C08091170403
:101CB0008D7F2BC0809116048F7E4CC080911604BE
:101CC0008F7D48C0809116048F7B44C0809116049C
:101CD000877F8B7F3FC0809117048D7F8E7F15C0DB
:101CE0008091160482FB222720F991E0922790FB35
:101CF00082F990FB83F92EC080911704982F90955C
:101D000091708E7F892B90FB81F98093170424C0FA
:101D10000E945B258091160487FB222720F991E021
:101D2000922790FB87F916C061E08EE090E00E9458
:101D30001C2812C08091160484FB222720F991E010
:101D4000922790FB84F906C080911604982F9095F5
:101D500090FB80F98093160460911604109117048B
:101D600084E090E00E941C28612F82E290E00E94B3
:101D70001C280E945B25ABC20C35FDE51F0709F44A
:101D800062C060F401158CE51807A9F00F3D9CE5D1
:101D9000190709F05DC00E9483134AC00E35ADE5F6
:101DA0001A0709F448C008F450C0093AEDE51E07C7
:101DB00009F43EC04DC00E945B25FFEF24E38CE098
:101DC000F15020408040E1F700C00000F89481E02D
:101DD0008093E00080E28093D8001092C900AFE1C8
:101DE000BEE41197F1F700C000001DBA1092680020
:101DF0001CBC10BE1FBA10927A0010926E00109296
:101E00006F0010927100109272001092C90010922F
:101E1000BC0014B817B81AB81DB810BA1092BC009C
:101E200015B818B81BB81EB811BA0C94003F4FC2B1
:101E30000E94210A4CC28091170482FB882780F9F6
:101E400091E0892703C081E001C080E00E947F14F7
:101E5000D70112968C9112970D911C91882349F00D
:101E6000C8010E944E24D82E682FC8010E94BE24AB
:101E700004C0C8010E948A24D82EB8018D2D0E946A
:101E8000BF110E94D8118C01982ED7011296DC90B8
:101E900012971596CC90C2949FE0C922809160035E
:101EA0008770B9F0DD20A9F0812F807F803421F088
:101EB00080E2800F883068F08091170482FF09C0AB
:101EC00082E00E946214809160038770BB24B39407
:101ED0008111B12CA12EA2948FE0A8228A2D90E02E
:101EE0008C30910508F0C4C1FC01EC59FF4F0C94F3
:101EF000B728812F807F1F70882311F01295107FE3
:101F0000DD20B9F0112309F4A1C180E2800F8830EF
:101F100010F0911006C080910A04182B10930A0447
:101F200005C080910904182B109309040E940D1418
:101F30008DC1802F0E949325112309F499C1005E61
:101F4000812F083060F1992051F10E94FF1329C0C0
:101F5000812F807F1F70803211F01295107F9920A1
:101F600021F0B1E09B16D9F147C08091170482FDA2
:101F70001BC0DD2069F0112339F080910A04182B71
:101F800010930A040E940D1480E00E94C82570C1BD
:101F900080E00E949325112309F46AC1812F0E94D9
:101FA00006140E940D1464C1DD2081F0809181032C
:101FB000CC2051F0E1E0CE1207C0182B181709F41D
:101FC00057C11093810354C1812B10C0CC2021F044
:101FD000F1E0CF1609F44CC10E94F9131FC0DD20B7
:101FE00041F021E02C1508F443C1812F0E9489257E
:101FF0003FC1C1103DC112C0DD2019F0CC20A9F3B2
:1020000025C1CC2059F0093309F02FC18FEF97EE8D
:10201000A3E081509040A040E1F725C1812F0E94AC
:10202000822526C1812F86958695837019F081308F
:1020300059F01EC1DD2019F0C801937002C080E084
:1020400090E00E9451221AC1DD2019F0C80193705E
:1020500002C080E090E00E943B2210C1802FDD2072
:1020600019F00E94D72302C00E941F230E94F82269
:1020700005C1812F8370A9F5D110FEC0402F429574
:1020800046954770440F440F802F8F7090E09C015D
:10209000042E01C0220F0A94EAF704FF08C08FE063
:1020A00090E001C0880F4A95EAF7809501C080E072
:1020B000169516951370123069F088F4909182038A
:1020C000113019F0822B892302C0922B892B0E9498
:1020D0003625D2C0822B909182038927F8CF822B9C
:1020E000F6CFDD2019F0812F817001C086958823FD
:1020F00009F4C2C0402F429546954770440F440FE3
:10210000802F8F7090E09C01042E01C0220F0A9452
:10211000EAF704FF08C08FE090E001C0880F4A95FD
:10212000EAF7809501C080E016951695137012307D
:1021300059F078F49091D003113019F0822B892353
:1021400009C0922B892B06C0822B9091D00389273E
:1021500001C0822B0E94F3248FC01F70DD2039F054
:10216000812F0E942A25802F0E94892585C0802FDB
:102170000E948225812F0E941D257EC0802FB2EFF4
:102180009B1669F1B91538F0E0EF9E1659F0F1EFA2
:102190009F1601F157C023EF921641F194EF991663
:1021A000A9F050C0DD2069F0C11062C01F7181E04C
:1021B00090E001C0880F1A95EAF79091D003892723
:1021C0001FC0A1E0AC1508F453C0F0CF80911704F4
:1021D00082FD19C0DD2029F0812F8F7126C0DD20FE
:1021E000D9F3812F8F710E941D2542C0DD2039F067
:1021F0001F7181E001C0880F1A95EAF701C080E0E5
:102200000E94F32435C0DD2099F01F71812F0E94B8
:102210002A258091170482FF07C0B8E01B9FC001E8
:102220001124836080936003812F0E942A2520C09F
:1022300081E00E946214E1E0EC15D0F482E00E949B
:10224000621416C0DD2021F0CC2031F2802F9DCE0B
:10225000CC2039F2893349F4FFEF27EE83E0F150C7
:1022600020408040E1F700C00000802F0E949325AD
:1022700088EF8A0D843010F40E946722BB20B1F0F1
:102280008091600380FD12C0D70112961C92859543
:10229000859585950E942A25C7010E94EF0B8091A4
:1022A00060038595859585950E941D2585E0F7013C
:1022B000DE01119601900D928A95E1F709811A814C
:1022C000C8010E948A24B8010E94BF110FC08091EA
:1022D0006003877059F0F7018281882339F080917B
:1022E000170482FF03C082E00E946214A596EBE00F
:1022F0000C94782780E008959091160492FF0DC009
:10230000282F2871283019F4877F846006C0282F71
:102310002471243011F48B7F886093FF0DC0282F27
:102320002871283119F4877E846106C0282F247112
:10233000243111F48B7E88612091170420FF0DC099
:10234000382F3871383019F4877F816006C0382FF4
:102350003171313011F48E7F886021FF0DC0282F3C
:102360002871283119F4877E816106C0282F2171D8
:10237000213111F48E7E886194FD877E08957E3030
:10238000A0F4663090F494E5899FF001112486E072
:10239000789FE00DF11D1124E60FF11DEE0FFF1FD8
:1023A000EC50FF4F85919491089580E090E008955E
:1023B000CF93DF938238910569F1B0F481339105B1
:1023C00009F46FC048F48932910509F465C08A3276
:1023D000910509F46BC08AC08533910509F457C093
:1023E00089339105B9F082C0833E910571F138F4CB
:1023F000803E9105B1F0823E910511F177C0863E95
:102400009105B9F1873E9105C9F1843E910509F026
:102410006DC024C02091160420FD53C021FD51C081
:1024200065C08091160480FD46C08091170480FF2E
:1024300048C08091160484FD50C183EE90E04FC1E6
:102440008091160482FF3AC0F4CF8091160482FD79
:1024500035C08091170480FD34C0EBCF8091170404
:1024600081FF35C08091160484FD37C187EE90E06E
:1024700036C18091160483FF27C0F4CF80911604E3
:1024800083FD22C08091170481FD21C0EBCF809194
:10249000160485FD1FC021C08091160485FD1DC056
:1024A00019C08091160486FD1BC01DC080911604C2
:1024B00086FD19C015C089E390E011C182EE90E05D
:1024C0000EC180EE90E00BC186EE90E008C184EE74
:1024D00090E005C189E290E002C185E390E0FFC091
:1024E0008AE290E0FCC081E390E0F9C0811531E51B
:1024F000930708F069C0811540E59407F0F09C014E
:1025000074E0369527957A95E1F7922F9370482FCE
:10251000437021E030E002C0220F331F4A95E2F7FA
:102520003C68392B982F9F709695969540E2949F22
:10253000C0011124822B932BD2C0883E910568F5EF
:10254000803E910508F0CBC0883A9105B8F4853AF1
:10255000910548F0855AE82FF0E0EF56FD4F808155
:1025600090E09064BCC08130910509F4B3C008F4D8
:10257000B4C08430910508F4B0C0B1C08F3B910560
:1025800008F0ABC0885AE82FF0E0EE0FFF1FEC56C2
:10259000FD4F808191819464A2C0811520E2920751
:1025A00058F4811531E0930708F099C08D3E9105EC
:1025B00008F493C0906593C0811540E4940708F433
:1025C0008CC09F70906A8BC0811525E5920708F03A
:1025D00042C0811534E5930728F0982F8827846F2F
:1025E000906A7DC0811543E59407B0F09C0123708B
:1025F000332741E050E002C0440F551F2A95E2F70F
:10260000282F2695269580E2289F90011124CA0143
:10261000822B932B9A6863C0811522E5920728F4D8
:10262000982F8827816F906A5AC09C0123703327A6
:1026300041E050E002C0440F551F2A95E2F7282FD1
:102640002695269580E2289F90011124CA01822BAD
:10265000932B9C6844C0EC01811539E59307A8F4DD
:102660008115984528F09C2F8827806F906A37C085
:10267000C11586E5D80788F58C2F0E947C118F71D3
:1026800090E0982F882790622AC081152AE592074A
:1026900090F48C2F8F700E947C1194E0D695C79592
:1026A0009A95E1F7CF70D0E0DC2FCC27D0699E015E
:1026B000282BC90114C090568115904270F48D2FBB
:1026C0008F710E947C11282F2F71CE019927906263
:1026D000922B05C081E090E002C080E090E0DF91A5
:1026E000CF910895CF9384E090E00E94F827C82FFF
:1026F00082E290E00E94F8272C2F30E0A901582BAD
:10270000CA01CF91089568EE7EEF80E090E00E94CC
:102710003A2860E082E090E00E941C2860E083E0BC
:1027200090E00E941C281092820360E084E090E018
:102730000E941C2864E082E290E00E941C2860E075
:1027400085E090E00E941C2860E086E090E00E9416
:102750001C286FEF87E090E00E941C2840E050E0CA
:10276000BA0188E090E00E942E2860E08DE090E0C1
:102770000E941C2840E050E0BA0188E190E00E94ED
:102780002E2860E087E190E00E941C2840E050E0A5
:10279000BA018CE190E00E942E2860E070E080E2B7
:1027A00090E00E943A2840E050E0BA0188E190E0D1
:1027B0000E942E281092BE031092BF031092C003F5
:1027C0001092C10384E08093BE034091BE035091F8
:1027D000BF036091C0037091C1038FE090E00E943D
:1027E0002E2840E050E0BA0183E190E00E942E28BC
:1027F000089580918103811110928103089580953D
:1028000090910904892380930904089580959091FB
:102810000A04892380930A04089590910A04809100
:102820000904982B90930803809181038823D9F0A1
:10283000892B8093080380910A01882331F08091CD
:10284000160487FF02C08EE101C086E0EAE0F3E0F3
:1028500090E0815028F021912223D9F39F5FF9CF96
:1028600091110E94F91340E250E061E673E088E0C4
:1028700093E00E94DE29892B21F180E2E8E0F3E079
:10288000A1E6B3E001900D928A95E1F7E0910D0485
:10289000F0910E043097A9F080910A01882359F035
:1028A0008091160487FF07C0809108038093090375
:1028B00086E0809308030280F381E02D88E093E0B6
:1028C0000995089520916003809582238093600389
:1028D000982F977099F430E0482F082E000C550B74
:1028E0002417350759F09091170492FF07C085957A
:1028F000859585950E941D25109260030895CF93BC
:10290000C0911704C2FB992790F9981791F080FBAA
:10291000C2F9C09317046091160484E090E00E940D
:102920001C286C2F82E290E00E941C2882E00E940A
:102930006214CF91089580915F0390912E038917BF
:1029400019F08F5F8770FBCF08950F931F93CF937C
:10295000DF9380912D0382958F7009F05AC080918A
:102960002A03882309F455C080915F0310912E0338
:102970006091280370912903C0912B03D0912C03FF
:1029800091E06F3F09F090E0292F06E0811709F4EC
:1029900040C0209721F07F3F21F030E003C031E0BC
:1029A00001C0322F90E030FD31C0089FF001099F37
:1029B000F00D1124DF01A15DBC4F11963C911197E0
:1029C000371324C03C91361321C012963C911297C4
:1029D00031111CC013964D915C9114974C1B5D0BEB
:1029E0004C38510598F480912D038F70806180934D
:1029F0002D03EC5CFC4F80818F708061808388E2C6
:102A000093E00E94EF0B0E949B1403C00196877015
:102A1000BDCFDF91CF911F910F910895A1E1B0E05B
:102A2000E4E1F5E10C945C278C0185E0F801DE011E
:102A30001D9601900D928A95E1F7F801E280909140
:102A400028036091290340912B0350912C034115D9
:102A5000510531F06F3F31F481E09F3F19F403C01D
:102A600081E001C080E0F82FF1709F2E80FD1BC136
:102A7000F80130812181C380D48088E2A82E83E0D0
:102A8000B82EF0902A03F601E41BF50BFF2009F4A1
:102A9000C7C080912D03EC38F10508F092C0482F93
:102AA000407F09F051C0621311C093130FC0FE2C78
:102AB000E1100CC08F70806180932D03C5010E94CE
:102AC000EF0B80912D03F80185832AC1C114D10435
:102AD00031F02F3F31F481E03F3F19F403C081E032
:102AE00001C080E080FD03C081E08E2502C080E04F
:102AF00090E0F82FF170FF2E80FF1CC080915F03E3
:102B000040912E0356E0841709F4E8C090E0589FE6
:102B1000F001599FF00D1124E15DFC4F61812613F6
:102B200006C06081631303C06281E61203C0019690
:102B30008770E9CFFE2CEE2009F4F2C080912D03BE
:102B4000816080932D0349C0621306C0931304C0B3
:102B5000E11002C0F80186C0C8010E943B2588230D
:102B600051F1EE2041F120912D03822F82958F703B
:102B700090E0029774F08091280390912903988740
:102B80008F831986DB86CA862C87CE0107960E9422
:102B9000EF0B86E0F801A8E2B3E001900D928A9570
:102BA000E1F70E94A5140AC06217C9F0C8010E948B
:102BB0003B2581111EC0C8010E94EF0BFF24F39436
:102BC000AFC0482F407F81F788E293E00E94EF0B6F
:102BD00086E0F50111928A95E9F7F12CA1C09313D3
:102BE000E5CFE110E3CFF8018583C8010E94EF0B28
:102BF00054C0EE2001F320912D03822F82958F7017
:102C000090E0029734F280912803909129039A83EF
:102C100089831B82DD82CC822E83CE010196B7CFC1
:102C2000EC38F105D0F5FE2CEE2029F2621327C016
:102C3000931325C020912D0320FD18C0822F82956B
:102C40008F70482F50E04115510581F0F801258320
:102C50004F30510541F08F5F982F9295907F822FD2
:102C60008F70892B8583C8010E94EF0B86E0F801E5
:102C7000A8E2B3E001900D928A95E1F751C0C80136
:102C80000E943B25811185CF80912D038160809327
:102C90002D03C8010E94EF0B43C086E0F50111929D
:102CA0008A95E9F73DC0EE2009F485CFC8010E945E
:102CB0003B25F82E882309F47ECF86E0F801A8E2B0
:102CC000B3E001900D928A95E1F7809128039091ED
:102CD00029030E947D240E94A51422C03D872E87CF
:102CE0008D859E850E947D24292F22952F7022306C
:102CF00028F49F7039F0811105C00BC0243028F4EE
:102D00009F7049F4805E883020F0C8010E94EF0B6C
:102D10009F2CF92C05C0F8019581907F99F7F9CF88
:102D20008F2D6196EBE00C947827A0E0B0E0EBE902
:102D3000F6E10C945E278091170190911801892B80
:102D400091F0809183038F5F8093830381110BC087
:102D50000E94610A90E09093180180931701892BDB
:102D600011F40E94D80A02EC13E07801B12CC0E003
:102D700087E0C82ECC0E8C2F0E94480B8C2D0E9411
:102D8000480B8C2F0E94AB0B8F73F7019081891732
:102D900021F08083DD24D39401C0D12C8C2D0E949E
:102DA000AB0B8F73F7019781891719F0878381E047
:102DB00001C080E0D82ABD280E949C0BCF5FFFEFA6
:102DC000EF1AFF0AC730A1F6C0918703CC23C9F1DF
:102DD0000E94DE212091850330918603AC01421BC5
:102DE000530B9A0190938603809385034F3F5105BF
:102DF00009F020F4452B09F4A1C002C02FEF30E008
:102E00001092870310928403E091BC03F091BD03FC
:102E1000AF01425F5F4F90E030E08081882341F056
:102E2000281718F010829C2F03C0821B80833C2F30
:102E30003196E417F50789F730938703909384035D
:102E40007DC0BB2009F471C00E94DE2190938603EF
:102E500080938503E091BC03F091BD0380918703CB
:102E6000A1EDB3E09F01225F3F4F4EE1E801999150
:102E70008E015C91591731F05081511103C040838C
:102E80009C9381E031961196E217F30779F78093CE
:102E900087032091B9038091890390918A032223AB
:102EA000C9F1892B31F425982D9826982E982798CA
:102EB0002F988091890390918A039170892B79F4DE
:102EC00080918803882319F026982E9802C0269AAC
:102ED0002E9A9091880381E08927809388038091BE
:102EE000890390918A038130984750F01092B9037A
:102EF0008091D0030E94370A10928A0310928903AE
:102F00008091890390918A03019690938A0380931C
:102F1000890318C0892BB1F010928A03109289039B
:102F20008091D0030E94370A0DC080E09091840305
:102F3000992309F4AECF81118DCF86CFB1108ACFFE
:102F400081E0F4CF8B2DCDB7DEB7E9E00C947A2782
:102F50008091B10387FF11C08091E80082FD05C018
:102F60008091BB038111F8CF11C08091E8008B776D
:102F70000BC08091BB03882349F08091E80080FF5B
:102F8000F8CF8091E8008E778093E8000895982F1D
:102F9000973068F59093E900981739F07091EC003C
:102FA0002091ED005091F00003C0242F762F50E0C7
:102FB00021FD02C09F5FECCF3091EB003E7F30934C
:102FC000EB003091ED003D7F3093ED003091EB0050
:102FD00031603093EB007093EC002093ED00509340
:102FE000F0002091EE0027FDE5CF80E008958F707E
:102FF0008093E90081E008952091B7033091B803F0
:103000002617370748F06115710539F42091E8005B
:103010002E772093E80001C0B901FC0120E0611582
:10302000710579F18091BB038823F1F18530F1F1CD
:103030008091E80083FD3CC08091E80082FD2EC0B5
:103040008091E80080FFEBCF2091F3008091F200A7
:1030500090E0922B6115710551F08830910538F49C
:1030600021912093F100615071090196F3CF21E085
:10307000089709F020E08091E8008E778093E800BF
:10308000CECF2111CFCF0AC08091BB03882361F03E
:10309000853061F08091E80083FD0AC08091E800EE
:1030A00082FFF2CF80E0089582E0089583E00895E2
:1030B00081E008950895BC0184E00E947E21089576
:1030C000BC0183E00E947E210895AAE2B0E0EBE615
:1030D000F8E10C946427E1EBF3E089EB93E02091B5
:1030E000F10021938E179F07D1F78091B2038330AF
:1030F00009F463C030F4813071F0823009F49DC06E
:10310000B4C08A3009F489C08B3009F46EC08930AC
:1031100009F0ABC020C08091B103813A09F0A5C08D
:103120008091E800877F8093E8008091B5039091BB
:10313000B603892B21F460E28EE893E003C060E0DF
:1031400080E090E070E00E94FC178091E8008B77AF
:103150008093E8008AC08091B103813209F085C074
:103160008091B5039091B603009719F0039709F089
:103170007CC08091E800877F8093E8008091E80020
:1031800082FD05C08091BB038111F8CF6EC02091F4
:10319000F3008091F20090E0922B029731F480913D
:1031A000F100813011F0863021F48091F10080939C
:1031B0008D038091E8008B7754C08091B103813AF0
:1031C00009F053C08091B5039091B603892B09F0A3
:1031D0004CC08091E800877F8093E8008091E800F0
:1031E00080FFFCCF80910A0137C08091B10381320A
:1031F000E1F58091B5039091B603892BB1F58091EB
:10320000E800877F8093E8000E94A8178091B303AD
:1032100080930A010E945B2528C08091B10381320E
:1032200021F58091E800877F8093E8000E94A8172D
:103230008091B40380938C0318C08091B103813ACC
:10324000A1F48091E800877F8093E8008091E800F6
:1032500080FFFCCF80918C038093F1008091E80087
:103260008E778093E8000E94A8178091E80083FF82
:10327000E4C18091B1039091B203492F50E04A30EC
:10328000510508F0DAC1FA01E059FF4F0C94B72854
:10329000803821F0823809F0D0C108C08091AE0397
:1032A0009091AF03992389F082600FC08091B5039C
:1032B0008F70873008F0C1C18093E9008091EB00E6
:1032C00085FB882780F91092E9009091E800977FAC
:1032D0009093E8008093F1001092F10070C1282FC4
:1032E0002D7F09F0AAC1882319F0823061F0A5C1B1
:1032F0008091B303813009F0A0C1933009F080E0E0
:103300008093AF032EC08091B30381112AC08091B6
:10331000B5038F702FEF280F263008F08EC18093F1
:10332000E9002091EB0020FF1CC0933021F4809134
:10333000EB00806214C09091EB0090619093EB00E1
:1033400021E030E0A90102C0440F551F8A95E2F741
:103350004093EA001092EA008091EB00886080932D
:10336000EB001092E9008091E800877F8093E800ED
:103370000E94A81762C1811160C11091B3031F7729
:103380008091E3008078812B8093E3008091E800B6
:10339000877F8093E8000E94A8178091E80080FF53
:1033A000FCCF8091E30080688093E300111102C09C
:1033B00082E001C083E08093BB033FC1805882302C
:1033C00008F03BC12091B3033091B4032C3D53E08E
:1033D000350779F583E08A838AE289834FB7F894C9
:1033E000DE01139620E03EE051E2E32FF0E050933F
:1033F0005700E49120FF03C0E295EF703F5FEF704C
:103400008E2F90E0EA3010F0C79601C0C0968D93E1
:103410009D932F5F243149F74FBF8091E800877F4C
:103420008093E8006AE270E0CE0101960E94FC17EA
:10343000B4C08091B5039091B603432F5527433014
:103440005105A9F068F44130510509F405C1423035
:10345000510509F0F2C084E790E0EAEFF5E04BC0D7
:103460004132510529F14232510589F1E6C0C901C5
:10347000992781309105A1F058F0029709F0DDC03D
:10348000E0E8F6E0E4918E2F90E0E0E8F6E030C06E
:10349000E2ECF6E0E4918E2F90E0E2ECF6E028C05A
:1034A000E8E9F6E0E4918E2F90E0E8E9F6E020C04C
:1034B0008430910508F0C1C0880F991FFC01E253C8
:1034C000FD4F0190F081E02D89E090E014C0843040
:1034D000910508F0B2C0FC01EE0FFF1FEA53FD4F4B
:1034E0000190F081E02DDC01AE53BD4F8C9190E056
:1034F000009709F4A2C02091E800277F2093E800FC
:103500002091B7033091B8032817390708F4C9018F
:1035100040E0009789F12091BB03222309F43DC0CC
:103520002530D9F12091E80023FD37C02091E80033
:1035300022FD2FC02091E80020FFEBCF4091F30047
:103540002091F20030E0342B009759F028303105FB
:1035500040F444914093F100319601972F5F3F4F23
:10356000F3CF41E02830310509F040E02091E80038
:103570002E772093E800CDCF4111CDCF0AC08091A6
:10358000BB03882351F0853041F08091E80083FD32
:1035900004C08091E80082FFF2CF8091E8008B7731
:1035A0008093E8004AC0803809F047C08091E80065
:1035B000877F8093E8008091B0038093F100809131
:1035C000E8008E77D3CE811138C08091B3039091FB
:1035D000B403992702978CF58091E800877F809348
:1035E000E8001091B3031093B0030E94A8171111C3
:1035F00006C08091E30087FD02C081E001C084E045
:103600008093BB0342E061EC81E00E94C71742E077
:1036100061EC82E00E94C71742E261EC85E00E9403
:10362000C71742E261EC83E00E94C71742E260ECF8
:1036300084E00E94C7178091BB038091E80083FF5C
:1036400010C08091E800877F8093E8008091EB00B4
:1036500080628093EB0005C082E190E0EEE6F6E048
:103660004ACFAA96E3E00C9480271F920F920FB6E0
:103670000F9211242F933F934F935F936F937F93F8
:103680008F939F93AF93BF93CF93DF93EF93FF936A
:10369000C091E900CF708091EC00D82FD17080FDEF
:1036A000D0E81092E9008091F000877F8093F000CD
:1036B00078940E9465181092E9008091F00088606B
:1036C0008093F000CD2BCF70C093E900FF91EF9174
:1036D000DF91CF91BF91AF919F918F917F916F912A
:1036E0005F914F913F912F910F900FBE0F901F90C0
:1036F0001895E8EDF0E080818E7F80831092E200E3
:103700001092DA001092E100A0EEB0E08C9181609E
:103710008C9380818F77808319BCA7EDB0E08C916A
:103720008E7F8C9380818F7E808310928B0308958F
:10373000A0E0B0E0EEE9FBE10C945F27C8EDD0E03B
:1037400088818F7E8883E7EDF0E0808181608083CF
:1037500084E082BF81E080938B0388818E7F8883A1
:1037600002EE10E0F80110821092DA0081EEC82E0D
:10377000D12CF601108288818F77888388818068B8
:10378000888388818F7D888319BC1092BB03109237
:10379000B0031092AF031092AE0390EEE92EF12C1D
:1037A000F70180818B7F808388818160888342E0FC
:1037B00060E080E00E94C717F60180818E7F8083E1
:1037C000F801808181608083808188608083F70137
:1037D00080818E7F8083888180618883CDB7DEB7CA
:1037E000E8E00C947B271F920F920FB60F921124E2
:1037F0002F933F934F935F936F937F938F939F93F9
:10380000AF93BF93EF93FF938091E10082FF09C0D4
:103810008091E20082FF05C08091E1008B7F809360
:10382000E1008091DA0080FF2AC08091D80080FFFB
:1038300026C08091DA008E7F8093DA008091D900D3
:1038400080FF18C080E189BD82E189BD09B400FE16
:10385000FDCF81E08093BB0380918B0381110FC06A
:103860000E94791B0E94981B8091E20084608093E3
:10387000E20005C019BC1092BB0310928B0380912B
:10388000E10080FF17C08091E20080FF13C08091AB
:10389000E2008E7F8093E2008091E200806180935D
:1038A000E2008091D80080628093D80019BC85E046
:1038B0008093BB038091E10084FF30C08091E200DF
:1038C00084FF2CC080E189BD82E189BD09B400FE7E
:1038D000FDCF8091D8008F7D8093D8008091E1004A
:1038E0008F7E8093E1008091E2008F7E8093E200E2
:1038F0008091E20081608093E2008091B003882390
:1039000011F084E007C08091E30087FD02C081E0F0
:1039100001C083E08093BB038091BB038091E100F1
:1039200083FF27C08091E20083FF23C08091E100E4
:10393000877F8093E10082E08093BB031092B00305
:103940008091E1008E7F8093E1008091E2008E7F84
:103950008093E2008091E20080618093E20042E087
:1039600060E080E00E94C7178091F000886080933B
:10397000F000FF91EF91BF91AF919F918F917F9157
:103980006F915F914F913F912F910F900FBE0F90CC
:103990001F9018952091E4003091E50095E6409144
:1039A000EC00842F817040FF23C08091E80080FDEF
:1039B0001DC08091BB03882399F0853099F08091D8
:1039C000EB0085FD11C04091E4005091E500241703
:1039D000350729F3915011F09A01E1CF84E0089561
:1039E00082E0089583E0089581E0089580E00895DD
:1039F0004091E80042FFDDCF0895EF92FF920F93D0
:103A00001F93CF93DF937C018B010E94CA1C81110D
:103A100019C0E70101151105A1F08091E80085FDAD
:103A20000AC08091E8008E778093E8000E94CA1C4B
:103A3000882381F307C089918093F1000150110917
:103A4000E9CF80E0CDB7DEB7E6E00C947D27CF93D9
:103A50002091BB03243029F5C091E900CF7030914B
:103A6000EC00232F217030FD20E8C22B23E02093AF
:103A7000E9002091E80020FF11C040E050E060E242
:103A800070E00E94FD1C882321F01092B90310926F
:103A9000BA038091E8008E778093E800CF70C093DE
:103AA000E900CF910895ACE5B0E0E9E5FDE10C94C3
:103AB0005A2785B7806885BF85B7806885BF84B77A
:103AC000877F84BF0FB6F894A895809160008861C5
:103AD00080936000109260000FBE90E080E80FB607
:103AE000F89480936100909361000FBE8AE791E1A2
:103AF0009093E3028093E2020E94791B0E94981B3C
:103B00008091E20084608093E20078948091BB030E
:103B10008823A1F01091E9001F709091EC00892F8B
:103B2000817090FD80E8182B1092E9008091E800E8
:103B300083FD0E9465181F701093E90082E084BD28
:103B400093E095BD9AEF97BD80936E000E94610A45
:103B500090E090931801809317010E949C0B0E94A3
:103B6000E20BE2ECF3E0A1EDB3E011921D9223E051
:103B7000E03DF207D1F78EE090E00E94BD288093EF
:103B8000BC039093BD03FC010E961192E817F90750
:103B9000E1F789EA8093800089E08093810024988E
:103BA0002C983F988AB18F7C8AB96E98479A8BB1CE
:103BB00080638BB9769A8FE090E00E940028609332
:103BC000BE037093BF038093C0039093C1036770DB
:103BD0003FEF639FB00111247595679575956795C3
:103BE0007727709389006093880070938B006093AF
:103BF0008A0070938D0060938C000E94D80A80E048
:103C000090E00E940628883E9E4F11F00E94831388
:103C100082E090E00E94F8278093DF030E947213F5
:103C2000909317048093160483E090E00E94F82795
:103C30000E9436258091D0030E94370A8BE091E0E4
:103C400090930E0480930D0428E1E22EF12C30E4D1
:103C5000D32E8091BB03853009F052C000E112E100
:103C60008091BB03853009F047C08091BB0384304D
:103C700009F1109211040FB6F894A895E092600033
:103C80000FBED092600083B7817F846083BF83B70B
:103C9000816083BF7894889583B78E7F83BF0FB68A
:103CA000F894A895809160008861809360001092DC
:103CB00060000FBE8091AF03882391F20E94610AD9
:103CC00090E090931801809317010E949C0B0E9432
:103CD000E20BE1EDF3E0119283E0EF3DF807D9F755
:103CE0000E949516E1EDF3E08191811185C223E0F8
:103CF000EF3DF207C9F7B4CF0E945B250E9467220F
:103D00000E949516882359F08FB7F89440911204B9
:103D10005091130460911404709115048FBFE0EE6C
:103D2000F3E0A1EDB3E000E010E0302F2D91919190
:103D30009227A1F180E0CC24C394492F4C2151F16A
:103D400064968FAF649765963FAF65972C2181E0AD
:103D500009F480E066968FAF66970E94DE2181604D
:103D6000782F68969FAF8EAF689764964FAD649733
:103D700065965FAD659766966FAD669768968FADF1
:103D800068970E947009F801E052FC4F8081C826B4
:103D9000C0822AC08F5FCC0C863079F60F5F1F4F30
:103DA0000E30110509F0C1CF8FEF69968FAF69977B
:103DB0006A968FAF6A976B961FAE6B970E94DE2153
:103DC0008160782F6D969FAF8EAF6D9769964FADDE
:103DD00069976A965FAD6A976B966FAD6B976D96B4
:103DE0008FAD6D970E9470098091190190911A0111
:103DF000019641F1C12C96E1792E1BC07A9CF0010D
:103E00007B9CF00D1124E55EFE4F8288938881141F
:103E1000910419F48CE8882E912C7A9C80017B9C6B
:103E2000100D1124055E1E4FF801868181111FC0FF
:103E3000C394AC2CB12C8091190190911A018A1570
:103E40009B05E4F685E0E2E0F4E0DE0111960190E6
:103E50000D928A95E1F710920304109204041092D7
:103E60000504109206041A811123C9F01CC085852F
:103E700096850E94CF2188169906D0F6F80181898F
:103E8000811103C0C8010E9474227A9CC0017B9CEE
:103E9000900D11248F5D9E4F0E949322C9CF8B817C
:103EA000882309F452C080910004909101040E947B
:103EB000CF219C019091FC03992309F4B3C12531D2
:103EC000310508F442C09F3F19F09F5F9093FC03B7
:103ED000112361F00E94B423111614F09FEF01C06A
:103EE00091E0899F802D1124809303041B8111236D
:103EF00061F00E94B423111614F09FEF01C091E00D
:103F0000899F802D1124809304043091030433236E
:103F1000E1F0209104042223C1F045EB3403C001F9
:103F20001124992319F09093030403C081E0809336
:103F3000030435EB2303C0011124992319F0909356
:103F4000040403C081E0809304041C81111104C0A7
:103F50008D81882309F452C08091FE039091FF0364
:103F60000E94CF219C019091FB03992309F45EC12B
:103F70002937310508F442C09F3F19F09F5F9093A5
:103F8000FB03112361F00E949623111614F09FEF9A
:103F900001C091E0899F802D1124809305041D812B
:103FA000112361F00E949623111614F09FEF01C0B7
:103FB00091E0899F802D112480930604309105049F
:103FC0003323E1F0209106042223C1F045EB3403B2
:103FD000C0011124992319F09093050403C081E0D6
:103FE0008093050435EB2303C0011124992319F0B4
:103FF0009093060403C081E08093060445E050E0FE
:10400000BE016F5F7F4F82E094E00E94DE29892B22
:10401000A9F48091030481110FC0809104048111DF
:104020000BC080910504811107C081E090910604C6
:10403000911103C080E001C081E080FD0E94F82260
:1040400085E0FE013196A2E0B4E001900D928A95E0
:10405000E1F70E9467229091EE0389138093EE03AB
:104060008091BB03843009F0F4CD8093E900809106
:10407000E80082FFEECD8091E80085FF22C00E941B
:10408000CA1C81111CC000E210E05E0141E2A40ED6
:10409000B11C08C08091F100F50181935F010150CE
:1040A000110969F08091E80085FDF4CF8091E80066
:1040B0008B778093E8000E94CA1C882399F391E0D3
:1040C00001C090E08091E8008B778093E80099230D
:1040D00009F4BFCD89A18130E9F158F1823021F096
:1040E000843009F47DC0B5CD8BA19AA19093EF03E4
:1040F0008093F0038DA19CA19093F1038093F20330
:104100008FA19EA19093F3038093F40342E150E0CA
:1041100063E270E0CE018F5B9F4F0E94E82784E04E
:10412000898381E08093BA038EEF8A831092B9036A
:104130000CC019828CE0E6EDF2E0DE0112960190EF
:104140000D928A95E1F78EEF8D87CE0101960E9440
:10415000271D7FCD05EF13E00E94D822F80181933F
:1041600091938F01F3E00B3F1F07B1F781E0898343
:104170009091F5039A839091F6039B839091F703B6
:104180009C839091F8039D839091F9039E83909175
:10419000FA039F839EEF98878093B903CE0101961F
:1041A0000E94271D42E150E063E270E0CE010196DB
:1041B0000E94E827FE01319682E183301CF091894C
:1041C000928B01C0128A815031978F3FB1F742E143
:1041D00050E063E270E0CE0101960E940C2839CDD8
:1041E0008091BA03882309F434CD80E00E94F3243F
:1041F0008AA10E942A252DCD09BD19BD09B400FE52
:10420000FDCF8091D8008F7D8093D8008091E00011
:1042100082608093E0008091E00081FDFCCF0E94ED
:104220005B251ECD232B09F050CE8FCE23333105D5
:1042300008F0A4CEE3CE80918D03089522E0209370
:10424000E9002FEF3091E800215035FD06C035ED33
:104250003A95F1F700002111F5CF2091E80025FFF4
:104260000BC040E050E065E070E00E94FD1C8091D2
:10427000E8008E778093E8000895CF93DF93209134
:104280000A01222339F02091160427FF03C060E2BF
:1042900025E002C068E021E02093E9002FEF309193
:1042A000E800215035FD06C035ED3A95F1F70000E4
:1042B0002111F5CF2091E80025FF1DC0EC01809170
:1042C0000A01811105C040E050E068E070E003C0E1
:1042D00070E040E050E0CE010E94FD1C8091E800BB
:1042E0008E778093E80080E2FE01AEE8B3E00190B3
:1042F0000D928A95E1F7DF91CF910895809318048C
:1043000070931A04609319048091BB03843001F503
:1043100085E08093E9008FEF9091E800815095FD52
:1043200006C095ED9A95F1F700008111F5CF8091C7
:10433000E80085FF0DC040E050E063E070E088E1F8
:1043400094E00E94FD1C8091E8008E778093E80045
:10435000089578941F920F920FB60F9211248F93A5
:104360009F93AF93BF938091120490911304A091F7
:104370001404B09115040196A11DB11D809312047F
:1043800090931304A0931404B0931504BF91AF91BC
:104390009F918F910F900FBE0F901F9018959C01C9
:1043A0004FB7F8948091120490911304A0911404D3
:1043B000B09115044FBF821B930B08952FB7F8944B
:1043C0008091120490911304A0911404B0911504EB
:1043D0002FBF08951F920F920FB60F9211248F9343
:1043E0009F93AF93BF9380911104811113C080916B
:1043F000120490911304A0911404B09115044196F5
:10440000A11DB11D8093120490931304A093140472
:10441000B0931504BF91AF919F918F910F900FBEF4
:104420000F901F90189520910A012223C9F0209126
:10443000160427FF15C0262F2695269526952E3182
:10444000C8F4FC01E20FF11D677081E090E001C04B
:10445000880F6A95EAF7809592818923828308956F
:10446000FC0106962281621301C012823196E81780
:10447000F907C1F7089520910F043091100428170F
:10448000390771F09093100480930F04E0910D04AC
:10449000F0910E04309721F00084F185E02D09950C
:1044A000089520910B0430910C042817390771F0FE
:1044B00090930C0480930B04E0910D04F0910E0492
:1044C000309721F00680F781E02D09950895E0915D
:1044D0000D04F0910E04309729F00190F081E02D49
:1044E0000995089580E00895CF93DF93EC0181E072
:1044F000898B90910A048F81892B80930A04909173
:1045000009048885892B809309040E940D14EA818F
:10451000FB81CE010696309719F06C897D8909954B
:10452000DF91CF910895EF92FF920F931F93CF9356
:10453000DF93FC012285211136C0EC01E380F48079
:10454000F7E5FF1A26E12E9DC0012F9D900D112445
:10455000DC01A55EBE4F1496ED91FC9115978F5D21
:104560009E4F309729F054966D917C9155970995FF
:1045700086E18E9D80018F9D100D1124055E1E4FDA
:10458000F80187810E940614F80180850E94FF13BC
:104590000E940D14188219861B861E821D8210929D
:1045A000080410920704CDB7DEB7E6E00C947D272F
:1045B000CF93DF930E94D82766E070E00E94A32883
:1045C000D82F0E94D8276EE070E00E94A328C82F41
:1045D0006D2F782F80E00E94BF110497C59718F4C3
:1045E0008D2F9C2F02C00E94D822DF91CF91089579
:1045F0000E94DE2120910304211104C020910404B3
:10460000222321F09093010480930004209105045B
:10461000211104C020910604222321F09093FF036E
:104620008093FE03E0910D04F0910E04309731F079
:104630000480F581E02D82E094E0099508958D3E97
:1046400039F49091040497FF35C01092040459C0C6
:104650008E3E29F4909104041916BCF32BC090915E
:1046600003048F3E29F497FF25C01092030449C02C
:10467000803F19F41916CCF31DC090910504893FB1
:1046800029F41916BCF4109205043BC08A3F19F4B2
:1046900097FF10C0F8CF8B3F39F49091060497FF35
:1046A00009C0109206042DC08C3F21F4909106049D
:1046B0001916BCF39FE0980F983080F421E030E0A9
:1046C000A90102C0440F551F9A95E2F7CA018095CF
:1046D0009091020489238093020413C08D3F21F43A
:1046E0008091FD038E7F0BC08E3F21F48091FD03EE
:1046F0008D7F05C08F3F29F48091FD038B7F8093D0
:10470000FD0380910304811106C08091040481118E
:1047100002C01092FC0380910504811106C08091B3
:104720000604811102C01092FB0308958091FD03DD
:1047300080FD16C081FD14C082FD14C08091FB0372
:10474000882371F08C3370F423E0829FC001112420
:104750006CE370E00E94A328862F672B09F0089570
:1047600081E0089583E008958091FD0380FD17C0E6
:1047700081FD17C082FD19C08091FC03882399F048
:104780008C3398F428E1829FC00111246CE370E01F
:104790000E94A328862F672B49F481E0089586E0C4
:1047A00008958CE0089588E0089588E108958D3E8D
:1047B00021F40E94B423819504C08E3E29F40E9406
:1047C000B4238093040408958F3E21F40E94B423FF
:1047D000819504C0803F29F40E94B4238093030490
:1047E0000895893F19F40E94962305C08A3F31F449
:1047F0000E94962381958093050408958B3F21F4B0
:104800000E949623819504C08C3F29F40E94962330
:104810008093060408959FE0980F983078F421E083
:1048200030E0A90102C0440F551F9A95E2F7CA0172
:1048300090910204892B8093020408958D3F21F406
:104840008091FD0381600BC08E3F21F48091FD03B8
:10485000826005C08F3F29F48091FD0384608093BE
:10486000FD03089580E090E00E94512280E090E0F6
:104870000E943B22109209040E940D14E2E0F4E031
:1048800085E0DF011D928A95E9F71092FC031092F2
:10489000FB031092FD030E94F8220895CF92DF924D
:1048A000FF920F931F93CF93DF936C010091D0037E
:1048B00080918203082BC7E0D0E010E0C8010C2EE5
:1048C00002C0959587950A94E2F780FD04C0219770
:1048D000A8F7F12C09C0FC2EB6018C2F0E94BF1145
:1048E0000E94D811019799F38F2DDF91CF911F91DD
:1048F0000F91FF90DF90CF900895CF93DF93EC015D
:104900000E944E24BE010E94BF110E94D811DF9167
:10491000CF910895292F9E3078F5863068F590E084
:1049200036E0239F800D911D1124682F677023E0CE
:10493000969587952A95E1F7FC01EE0FFF1FE80F8A
:10494000F91FE55EFB4F40E050E080E0219130E050
:10495000062E02C0369527950A94E2F72170332778
:10496000042E01C0220F0A94EAF7822B4F5F5F4F9B
:104970004330510559F7089580E00895292F9E305E
:1049800088F5863078F590E036E0239F800D911D04
:104990001124282F277051E001C0550F2A95EAF7FE
:1049A00023E0969587952A95E1F7FC01EE0FFF1F0E
:1049B000E80FF91FE55EFB4F20E030E070E040813A
:1049C000CB01022E02C0969587950A94E2F781707A
:1049D000819584278523842781932F5F3F4F233040
:1049E000310569F70895A0E2B0E0E9EFF4E20C9434
:1049F00064270E94370A182F8091BA038823A9F0F0
:104A00002FEF80E792E0215080409040E1F700C016
:104A1000000085E08983812F0E940D0A8A838EEF32
:104A20008B83CE0101960E94271D1093D0030E9414
:104A30003224A096E3E00C94802721E030E001C00E
:104A4000220F8A95EAF720958091D00382230E9455
:104A5000F324089521E030E001C0220F8A95EAF79F
:104A60008091D003822B0E94F324089580938203C7
:104A70000E9432240895FC01808191810E947D244E
:104A800092959F70963079F010F4925001C09A5030
:104A9000923068F4803F69F018F4883E40F409C011
:104AA000843F29F406C0883E20F0813F11F080E069
:104AB000089581E0089510920A0480910A018823E4
:104AC00031F08091160487FF02C08EE101C086E0BC
:104AD000EAE0F3E0DF011D928A95E9F70E943224B3
:104AE0000895882321F00E94FF130E940D14089559
:104AF000882339F090910904892B809309040E943E
:104B00000D140895882321F00E9406140E940D14AC
:104B10000895882339F090910A04892B80930A0420
:104B20000E940D140895882391F19CEF980F913AFB
:104B300030F4682F88E093E00E9413220DC090E2C9
:104B4000980F983060F4877091E001C0990F8A95B2
:104B5000EAF7892F0E9406140E940D1408959BE520
:104B6000980F933028F480E090E00E94512208953D
:104B700098E5980F973128F480E090E00E943B225E
:104B800008958D3E20F00E941F230E94F822089570
:104B9000CF93882309F49FC0C82F8CEF8C0F813AE4
:104BA00008F05BC080910A018823E1F0809116042F
:104BB00087FF18C0EC2FE695E695E695F0E0E85FF4
:104BC000FC4F8281282F30E04C2F477081E090E02D
:104BD00002C0880F991F4A95E2F782239323892BFD
:104BE00059F411C0EAE0F3E08191C81729F083E09D
:104BF000E031F807C9F707C06C2F88E093E00E9406
:104C000013220E940D1480910A018823B1F0809133
:104C1000160487FF12C0EC2FE695E695E695F0E0C6
:104C2000E85FFC4FC77081E090E001C0880FCA9533
:104C3000EAF79281892B828320C0AAE0B3E0EFEFEC
:104C400080E09D91C917C9F0EF3F19F4911101C09F
:104C5000E82F8F5F8630A9F735C080E28C0F88304F
:104C600078F4C77081E090E001C0880FCA95EAF738
:104C700090910A04892B80930A040E940D142BC082
:104C8000EBE5EC0FE33040F4F0E0EF56FD4F8081B0
:104C900090E00E9451221FC0E8E5EC0FE73150F48C
:104CA000F0E0EE0FFF1FEC56FD4F808191810E94D6
:104CB0003B2211C0CD3E78F08C2F0E94D7230E945A
:104CC000F82209C0EF3FC9F20E2E000CFF0BE85F7F
:104CD000FC4FC283D2CFCF9108951092B9008CE0DF
:104CE0008093B8000895A0E0B0E0E9E7F6E20C9404
:104CF0005C27B82EEB010E94DE216C01C431D10586
:104D000058F0CF3F8FEFD80759F0CE0164E170E043
:104D10000E9441277B0107C0EE24E394F12C03C0DD
:104D200025E0E22EF12C84E8A82E94EA992E109228
:104D3000BC009092BC000E94DE218C018091BC00DE
:104D400087FD08C00E94DE21801B910B8E159F05F8
:104D5000A8F32AC08091B900887F883041F0809103
:104D6000B900887F803119F00FEF1FEF1FC0B0929C
:104D7000BB00A092BC000E94DE218C018091BC008F
:104D800087FD08C00E94DE21801B910B8E159F05B8
:104D9000A8F30AC08091B900887F883111F080346F
:104DA00019F700E010E00EC00EEF1FEFCF3F8FEFBE
:104DB000D80709F4BCCFC6010E94CF218C179D07EC
:104DC00008F4B5CFC801CDB7DEB7EBE00C94782777
:104DD0000F931F93CF93DF93EB018093BB0084E885
:104DE0008093BC000E94DE218C018091BC0087FD75
:104DF0000EC0CF3F8FEFD807C1F30E94DE21801B8A
:104E0000910B8C179D0788F38EEF9FEF0CC02091BC
:104E1000B900287F81E090E0283211F480E090E032
:104E2000919581959109DF91CF911F910F910895EF
:104E30000F931F93CF93DF93EC0184E88093BC0022
:104E40000E94DE218C018091BC0087FD0EC0CF3F07
:104E50008FEFD807C1F30E94DE21801B910B8C17C6
:104E60009D0788F38EEF9FEF03C08091BB0090E019
:104E7000DF91CF911F910F91089584E98093BC0039
:104E80000895AA1BBB1B51E107C0AA1FBB1FA61791
:104E9000B70710F0A61BB70B881F991F5A95A9F7E3
:104EA00080959095BC01CD0108952F923F924F922D
:104EB0005F926F927F928F929F92AF92BF92CF92AA
:104EC000DF92EF92FF920F931F93CF93DF93CDB7B3
:104ED000DEB7CA1BDB0B0FB6F894DEBF0FBECDBF2B
:104EE00009942A88398848885F846E847D848C84FC
:104EF0009B84AA84B984C884DF80EE80FD800C8105
:104F00001B81AA81B981CE0FD11D0FB6F894DEBFE7
:104F10000FBECDBFED0108958F929F92AF92BF92C9
:104F2000CF92DF92EF92FF92CF93DF93EC016881F3
:104F300079818A819B81611571058105910521F433
:104F400064E279ED8BE597E02DE133EF41E050E04D
:104F50000E94402849015A019B01AC01A7EAB1E433
:104F60000E945F286B017C01ACEEB4EFA5019401B7
:104F70000E946D28DC01CB018C0D9D1DAE1DBF1D57
:104F8000B7FF03C00197A109B04888839983AA831A
:104F9000BB839F77DF91CF91FF90EF90DF90CF9011
:104FA000BF90AF909F908F9008950E948C27089596
:104FB00080E091E00E948C270895A0E0B0E080930B
:104FC000000190930101A0930201B09303010895A1
:104FD000DC01CB01FC01F999FECF06C0F2BDE1BDB9
:104FE000F89A319600B40D9241505040B8F70895A8
:104FF000F999FECF92BD81BDF89A992780B50895A1
:10500000A6E1B0E044E050E00C94EA27A8E1B0E06B
:1050100042E050E00C94EA27DC01A40FB51F415098
:10502000504048F0CB01840F951F2E910E941D28FF
:1050300041505040D0F70895262FF999FECF92BDE8
:1050400081BDF89A019700B4021639F01FBA20BD4D
:105050000FB6F894FA9AF99A0FBE08950396272F7F
:105060000E941D280E941C28252F0E941D28242FE5
:105070000C941D280196272F0E941D280C941C2893
:10508000052E97FB1EF400940E94572857FD07D069
:105090000E94722807FC03D04EF40C9457285095B8
:1050A0004095309521953F4F4F4F5F4F0895909514
:1050B0008095709561957F4F8F4F9F4F08950E9407
:1050C0009428A59F900DB49F900DA49F800D911DD5
:1050D00011240895B7FF0C945F280E945F28821B5B
:1050E000930B0895A1E21A2EAA1BBB1BFD010DC054
:1050F000AA1FBB1FEE1FFF1FA217B307E407F50788
:1051000020F0A21BB30BE40BF50B661F771F881F63
:10511000991F1A9469F760957095809590959B01F9
:10512000AC01BD01CF010895A29FB001B39FC001A2
:10513000A39F700D811D1124911DB29F700D811DC3
:105140001124911D089597FB072E16F4009407D0A3
:1051500077FD09D00E94412707FC05D03EF49095C9
:1051600081959F4F0895709561957F4F0895EE0F3B
:10517000FF1F0590F491E02D09940F931F93CF9397
:10518000DF938230910510F482E090E0E0913E04DC
:10519000F0913F0420E030E0A0E0B0E0309719F15A
:1051A000408151810281138148175907C8F0841743
:1051B000950769F4109731F012960C931297139695
:1051C0001C9327C000933E0410933F0422C0211576
:1051D000310519F04217530718F49A01BD01EF0188
:1051E000DF01F801DBCF21153105F9F0281B390B60
:1051F0002430310580F48A819B816115710521F08D
:10520000FB019383828304C090933F0480933E0408
:10521000FE01329644C0FE01E20FF31F8193919389
:1052200022503109398328833AC020913C043091BF
:105230003D04232B41F42091060130910701309366
:105240003D0420933C042091040130910501211577
:10525000310541F42DB73EB7409108015091090145
:10526000241B350BE0913C04F0913D04E217F30759
:10527000A0F42E1B3F0B2817390778F0AC014E5FC6
:105280005F4F2417350748F04E0F5F1F50933D04C2
:1052900040933C048193919302C0E0E0F0E0CF01A1
:1052A000DF91CF911F910F910895CF93DF930097D6
:1052B00009F481C0FC01329713821282A0913E044E
:1052C000B0913F04109781F420813181820F931FA8
:1052D00020913C0430913D042817390751F5F09393
:1052E0003D04E0933C0467C0ED0120E030E0CE17C0
:1052F000DF0740F44A815B819E0141155105F1F0C1
:10530000EA01F5CFD383C28340815181840F951F79
:10531000C817D90759F488819981840F951F02967F
:10532000918380838A819B819383828321153105B8
:1053300029F4F0933F04E0933E043DC0E901FB8370
:10534000EA8349915991C40FD51FEC17FD0761F409
:1053500080819181840F951F0296E901998388834A
:10536000828193819B838A83E0E0F0E012968D91A5
:105370009C911397009719F0FD01DC01F7CF8D91F7
:105380009C9111979D012E5F3F4F820F931F20919B
:105390003C0430913D042817390769F4309729F40B
:1053A00010923F0410923E0402C013821282B09306
:1053B0003D04A0933C04DF91CF910895FB01DC01F3
:1053C00004C08D910190801921F441505040C8F7DC
:0A53D000881B990B0895F894FFCF95
:1053DA0001000000000040042000011B213D211EA5
:1053EA002160185B185A182000FFFF53074F0985E0
:1053FA00050000000000000000000000000000009E
:10540A00003707EF086805000000000000000000F0
:10541A00000000000000001B07CF084B0500000039
:10542A0000000000000000000000000000FF06AFBE
:10543A00082E050000000000000000000000000027
:10544A00000000E3062E0919050000000000000014
:10545A00000000000000000000C7068F08FC0400DE
:10546A00000000000000000000000000000000AB87
:10547A00066F08DF040000000000000000000000C2
:10548A0000000000008F064F08C204000000000060
:10549A00000000000000000000000073062F08A5AD
:1054AA0004000000000000000000000000000000EE
:1054BA000000001909D403000000000000000000E9
:1054CA000000000000000057060F088804000000D2
:1054DA00000000000000000000000000003B06EF92
:1054EA00076B04000000000000000000000000003C
:1054FA000000001F06CF074E040000000000000055
:10550A000000000000000000000306AF073104009D
:10551A00000000000000000000000000000000E79A
:10552A00058F0714040000000000000000000000BE
:10553A000000000000CB056F07F703000000000021
:10554A00000000000000000000000000000F09CB6E
:10555A00030000000000000000000000000000003E
:10556A0000818283E200E900EA00B500B600B700D4
:10557A00CD008301CC008A01920194012102230209
:10558A0024022502260227022A02B300B4006F0071
:10559A0070004022476DBA0598055105E4040C06CF
:1055AA00250645065E0657726E72522F5730626C98
:0255BA0050009F
:00000001FF
